:020000040800F2
:1000000070080020D1040008A5020008A70200081B
:10001000AB020008AF020008B302000800000000B5
:10002000000000000000000000000000B70200080F
:10003000B902000800000000BB020008BD02000871
:10004000EB040008EB040008EB040008EB040008D4
:10005000EB040008EB040008EB040008EB040008C4
:10006000EB040008EB040008EB040008EB040008B4
:10007000EB040008EB040008EB040008EB040008A4
:10008000EB040008EB040008EB040008EB04000894
:10009000EB040008EB040008EB040008EB04000884
:1000A000EB040008EB040008EB040008EB04000874
:1000B000EB040008EB040008EB040008EB04000864
:1000C000EB040008EB040008EB040008EB04000854
:1000D000EB0400085B190008EB040008EB040008BF
:1000E000EB040008EB040008EB040008EB04000834
:1000F000EB040008EB040008EB040008EB04000824
:10010000EB040008EB040008EB040008EB04000813
:10011000EB040008EB040008EB040008EB04000803
:10012000EB040008EB040008EB040008EB040008F3
:10013000EB040008EB040008EB040008EB040008E3
:10014000EB040008EB040008EB040008EB040008D3
:10015000EB040008EB040008EB040008CB280008BF
:10016000EB040008EB040008EB040008EB040008B3
:10017000EB040008EB040008EB040008EB040008A3
:10018000EB040008EB04000800F002F800F03CF873
:100190000AA090E8000C82448344AAF10107DA45E2
:1001A00001D100F031F8AFF2090EBAE80F0013F0F8
:1001B000010F18BFFB1A43F001031847C42D0000BC
:1001C000E42D0000103A24BF78C878C1FAD852074D
:1001D00024BF30C830C144BF04680C6070470000C1
:1001E0000023002400250026103A28BF78C1FBD840
:1001F000520728BF30C148BF0B6070471FB502F0DF
:10020000BAFE1FBD10B510BD02F0A8FC1146FFF7E5
:10021000F5FF00F009F802F0DAFC03B4FFF7F2FF93
:1002200003BC01F03BFB00004FF4E13001F043FB65
:10023000A82001F0B1FA02F007FB01F0F6FC02F091
:10024000C3FB642001F00AFB10A002F049FC40212E
:10025000114801F04EFA18E00521104802F072FB37
:10026000322001F0FBFA05210C4802F06BFB322032
:1002700001F0F4FA02F096FA0521094802F062FB57
:1002800002F013FC322001F0E9FAE5E74265676904
:100290006E210D0A00000000001401400000002043
:1002A00005000020704700BFFEE700BFFEE700BF6B
:1002B000FEE700BFFEE770477047704770470000D9
:1002C0000CB50020019000907648006840F4803022
:1002D0007449086000BF7348006800F40030009063
:1002E0000198401C0190009818B90198B0F5A04FF2
:1002F000F1D16C48006800F4003010B1012000908A
:1003000001E0002000900098012846D16548403067
:10031000006840F0805063494031086062480068DE
:1003200040F44040604908605E48083000685D491C
:10033000083108600846006840F40040086008463C
:10034000006840F4A05008605848091F0860081F62
:10035000006840F08070091F086000BF51480068C5
:1003600000F000700028F9D040F205705049086094
:100370004C480830006820F003004A490831086002
:100380000846006840F00200086000BF4548083099
:10039000006800F00C000828F8D10CBD10B54548E5
:1003A000006840F47000434908603E48006840F02F
:1003B00001003C49086000203A490831086039488A
:1003C00000683D490840374908603C48091D0860FD
:1003D000081F006820F48020091F086000203149B0
:1003E0000C310860FFF76CFF4FF000603149803935
:1003F000086010BD70B500200022022300240221F5
:10040000284D08352D6805F00C0020B1042806D0D1
:10041000082834D107E02A4D2A4E356033E02A4DB2
:10042000284E35602FE01F4D2D1D2D68C5F38054DB
:100430001C4D2D1D2D6805F03F0154B1224DB5FB1B
:10044000F1F5184E361D3668C6F3881605FB06F220
:1004500009E01B4DB5FBF1F5124E361D3668C6F3AB
:10046000881605FB06F20F4D2D1D2D68C5F30145BD
:100470006D1C6B00B2FBF3F5124E356003E0104DBE
:10048000104E356000BF00BF064D08352D68C5F31E
:1004900003150E4E705D0B4D2D68C540094E35603D
:1004A00070BD000000380240007000400854400752
:1004B000003C024088ED00E0FFFFF6FE1030002413
:1004C0000024F4000C00002000127A00100000202C
:1004D0000948804709480047FEE7FEE7FEE7FEE7D8
:1004E000FEE7FEE7FEE7FEE7FEE7FEE70448054914
:1004F000054A064B704700009D030008890100086B
:100500007002002070080020700400207004002099
:1005100032490143324A1160704770B5002100230F
:100520000F22C4781CB32E4C246804F4E064C4F594
:10053000E064C4F30721C1F10404E3B20A41447842
:100540009C40E1B28478144021430C07210E254CD5
:1005500005786155047804F01F050124AC40057846
:100560006D11AD0005F1E025C5F8004109E0047802
:1005700004F01F050124AC401B4D0678761145F8A8
:10058000264070BD194A0A400243154B1B1F1A60D2
:10059000704739B1124A121D12680243104B1B1DDD
:1005A0001A6006E00E4A121D126882430C4B1B1D96
:1005B0001A607047042808D14FF0E021096941F022
:1005C00004014FF0E022116107E04FF0E0210969DA
:1005D00021F004014FF0E022116170470000FA059C
:1005E0000CED00E000E400E080E100E080FFFF1F90
:1005F00010B50121080200F000FE00214FF48070C8
:1006000000F0FBFD10BD30B502460020002350680D
:10061000F84C20400D790C6844EA052420435060D2
:100620009068F54C2040D1E903542C438D682C434D
:100630004D7944EA450420439060D06A20F470006C
:100640000C7D641EE4B2234340EA0350D06230BD07
:1006500000210160017141718160C160016101216E
:10066000017570470021E54A1168E54A1140D0E95B
:1006700000231A4383681A43C3681A431143E14AAB
:10068000C2F8041370470021016041608160C160BD
:10069000704721B1826842F00102826003E0826803
:1006A00022F00102826070470A4600214168D64B61
:1006B00019401143416070474162826270470A46A7
:1006C0000021416821F01F0111434160704738B19A
:1006D000CA49096841F40001CA4AC2F8041306E095
:1006E000C649096821F40001C64AC2F804137047DC
:1006F00038B1C249096841F48001C24AC2F8041302
:1007000006E0BE49096821F48001BE4AC2F804131C
:100710007047F0B504460D4600200021092D11DD7B
:10072000E068A5F10A0606EB4607072606FA07F178
:100730008843A5F10A0606EB460603FA06F10843CC
:10074000E0600CE0206905EB4507072606FA07F193
:10075000884305EB450603FA06F108432061072AA2
:100760000FDA606B561E06EB86071F2606FA07F1A6
:100770008843561E06EB860605FA06F108436063B9
:1007800022E00D2A0FDA206BD61F06EB86071F2604
:1007900006FA07F18843D61F06EB860605FA06F12E
:1007A0000843206310E0E06AA2F10D0606EB86071D
:1007B0001F2606FA07F18843A2F10D0606EB86060E
:1007C00005FA06F10843E062F0BD816841F080411E
:1007D00081607047014600208A6802F080420AB1B9
:1007E000012000E00020704721B1826842F480625D
:1007F000826003E0826822F480628260704721B1E7
:10080000826842F00202826003E0826822F0020203
:100810008260704710B50A4600210023416821F428
:100820006041531E41EA4331416010BD21B142682D
:1008300042F40062426003E0426822F400624260D7
:1008400070470146C86C80B270476C48001D006854
:10085000704721B1826842F48072826003E082684E
:1008600022F480728260704721B1826842F4007283
:10087000826003E0826822F400728260704738B1BF
:100880005E49096841F400515E4AC2F8041306E06B
:100890005A49096821F400515A4AC2F804137047B2
:1008A000F0B504461546002000220026092911DD76
:1008B000E068A1F10A0707EB470C072707FA0CF2DB
:1008C0009043A1F10A0707EB470703FA07F2104329
:1008D000E0600CE0206901EB410C072707FA0CF2FD
:1008E000904301EB410703FA07F210432061A06B2C
:1008F000C0F30156EF1C06F1010CA7EB0C0707EB48
:10090000870C1F2707FA0CF29043EF1C06F1010C2D
:10091000A7EB0C0707EB870701FA07F21043A06368
:10092000F0BD10B50A4600210023816B21F440116F
:10093000531E41EA0351816310BD08B500230093A3
:100940000090009B0B440093009B1A6008BD0A4670
:100950000021816821F470211143816070470A46AB
:100960000021816821F44011114381607047816842
:1009700041F4800181607047014600208A6802F4DA
:1009800080020AB1012000E00020704721B14268D6
:1009900042F48062426003E0426822F48062426076
:1009A000704721B1426842F48052426003E04268DD
:1009B00022F480524260704708B502460020009041
:1009C000009201F12800009B1844009000980068F4
:1009D00080B208BD10B50B460021D9B2012404FA3B
:1009E00001F11AB144680C43446002E044688C434E
:1009F000446010BDFFFEFFFCFDF7FFC00423014073
:100A0000E030FCFF00200140FFFD3FFF02460020D8
:100A100013680B400BB1012000E000207047CA436F
:100A20000260704770B502460020002300240B12BC
:100A3000556801268E4005EA060415681D4015B16B
:100A40000CB1012000E0002070BD00220A12D34347
:100A50000360704710B504469848844208D10121CC
:100A6000084600F086FB0021012000F082FB76E0C2
:100A70009348844208D10121022000F07AFB002132
:100A8000022000F076FB6AE08E48844208D1012102
:100A9000042000F06EFB0021042000F06AFB5EE001
:100AA0008948844208D10121082000F062FB00211E
:100AB000082000F05EFB52E08448844208D1012106
:100AC000102000F056FB0021102000F052FB46E001
:100AD0007F48844208D10121202000F04AFB0021F8
:100AE000202000F046FB3AE07A48844208D10121F8
:100AF000402000F03EFB0021402000F03AFB2EE0B9
:100B00007548844208D10121802000F032FB002189
:100B1000802000F02EFB22E07048844208D10121A1
:100B2000801500F026FB0021A01500F022FB16E046
:100B30006B48844208D10121401500F01AFB0021C6
:100B4000601500F016FB0AE06648844207D10121D7
:100B5000001500F00EFB0021201500F00AFB10BD6F
:100B6000F0B50A4600210023002400BF3DE0012526
:100B700005FA01F3156805EA03049C4234D10568BF
:100B80004F000326BE40B543056015794E00B540C1
:100B90000668354305601579012D02D01579022DBF
:100BA00016D185684F000326BE40B5438560557950
:100BB0004E00B540866835438560456801268E4005
:100BC000B5434560456896798E40B6B23543456079
:100BD000C5684F000326BE40B543C560D5794E00B9
:100BE000B540C6683543C560491C1029BFD3F0BD68
:100BF0004FF6FF7101600021017141718171C17176
:100C0000704708B54FF480320092009A0A43009270
:100C1000009AC261C161009AC261C2690092C26950
:100C2000009208BD0246002013690B400BB1012061
:100C300000E0002070470146086980B27047024614
:100C4000002053690B400BB1012000E000207047E9
:100C50000146486980B270470183704741837047FD
:100C60000AB1018300E041837047416170474269E6
:100C70004A4042617047F0B5002300244D07ED0E55
:100C800002FA05F3CE1000F1200555F826504E0764
:100C9000F70E0F26BE40B543CF1000F1200646F8F0
:100CA0002750CE1000F1200555F8265045EA0304E0
:100CB000CE1000F1200545F82640F0BD00000240AE
:100CC0000004024000080240000C024000100240F4
:100CD0000014024000180240001C024000200240A4
:100CE0000024024000280240F948006840F001005A
:100CF000F74908600020F64908310860F4480068A8
:100D0000F4490840F2490860F348091D0860F348B7
:100D1000EF4984310860F0481038091D0860EC483C
:100D2000006820F48020EA4908600020E8490C317E
:100D30000860E7498C31086070470021E44A921C42
:100D4000117011460870704710B50146002200234B
:100D500000204A11012A02D1DD4C236808E0022A52
:100D600003D1DB4C7034236802E0D94C743423681F
:100D700001F01F02012494401C400CB1012000E04E
:100D8000002010BD38B5002000900024002500BFD1
:100D90003120FFF7D9FF05460098401C00900098CD
:100DA000B0F5A04F01D0002DF2D03120FFF7CCFFDD
:100DB00008B1012400E00024204638BD014600208F
:100DC000C34A106820F0F80040EAC1001060704784
:100DD000C349086070470021BD4A7032117011701C
:100DE000012802D004280AD104E00121B84A703257
:100DF000117005E00521B64A7032117000E000BFA5
:100E000000BF7047B7490860704770B5049C41EA5D
:100E100082150126C6EB530645EA0645054345EA19
:100E20000465AB4E361D356070BDAD490866704730
:100E3000820142EA0172A64B84331A607047A849C6
:100E40008866704710B5830143EA016343EA027381
:100E50009F4C8834236010BDA14908677047A049A2
:100E6000C864704702460020994B0833186820F088
:100E7000EC6042EA01031843954B08331860704751
:100E800002460020924B0833186820F0784042EA6E
:100E9000010318438E4B0833186070470146002049
:100EA0008B4A0832106820F0030008431060704736
:100EB00087480830006800F00C00704701460020A9
:100EC000834A0832106820F0F00008431060704731
:100ED000014600207E4A0832106820F4E0500843A2
:100EE0001060704701460020794A0832106820F4EB
:100EF000604040EAC10010607047F0B50021002258
:100F00000024022500260223714F08373F6807F0AE
:100F10000C0121B1042905D0082937D105E0724F11
:100F2000076036E0714F076033E0694F3F1D3F684F
:100F3000C7F38056664F3F1D3F6807F03F036EB111
:100F40006A4FB7FBF3F7DFF888C10CF1040CDCF84B
:100F500000C0CCF3881C07FB0CF40CE0624FB7FB1D
:100F6000F3F7DFF86CC10CF1040CDCF800C0CCF333
:100F7000881C07FB0CF4564F3F1D3F68C7F3014721
:100F80007F1C7D00B4FBF5F7076002E0564F076059
:100F900000BF00BF4E4F08373F6807F0F001090956
:100FA000534F7A5C0768D7404760494F08373F681E
:100FB00007F4E051890A4E4F7A5C4768D740876052
:100FC000434F08373F6807F46041490B484F7A5C4C
:100FD0004768D740C760F0BD002100F44072B2F509
:100FE000407F0AD13A4A0832116821F4F811414A87
:100FF00002401143364A08321160354A7032126895
:10100000C0F30B031A43324B70331A6070473549F3
:1010100044390860704733494039086070473649A1
:101020000860704701460020294A8C32106820F081
:101030001F004A1E1043264A8C321060704701463A
:101040000020234A8C32106820F4F8504A1E40EAEF
:1010500002201F4A8C3210607047014600201C4A53
:101060008C32106820F4401008431060704701462D
:101070000020174A8C32106820F4400008431060AA
:10108000704701460020124A8C32106820F440302C
:1010900008431060704719490860704739B10C4A1D
:1010A0003032126802430A4B30331A6006E0084AB5
:1010B000303212688243064B30331A607047F9B100
:1010C000034A343212680243014B34331A601CE085
:1010D00000380240FFFFF6EA103000240030002004
:1010E00000004742800E47420024F40000127A00BC
:1010F00020000020FFFCFF0F5C014742E011474247
:101100008F4A126882438E4B1A60704739B18C4AFD
:10111000121D126802438A4B1B1D1A6006E0884AA2
:10112000121D12688243864B1B1D1A60704739B12D
:10113000834A0C3212680243814B0C331A6006E07A
:101140007F4A0C32126882437D4B0C331A60704721
:1011500039B17B4A103212680243794B10331A605E
:1011600006E0774A103212688243754B10331A60DA
:10117000704739B1724A243A12680243704B243BDB
:101180001A6006E06E4A243A126882436C4B243B94
:101190001A60704739B16A4A203A12680243684BB4
:1011A000203B1A6006E0664A203A12688243644B8C
:1011B000203B1A60704739B1614A1C3A12680243F9
:1011C0005F4B1C3B1A6006E05D4A1C3A1268824382
:1011D0005B4B1C3B1A60704739B1594A143A12688C
:1011E0000243574B143B1A6006E0554A143A126802
:1011F0008243534B143B1A60704739B1504A103A3E
:10120000126802434E4B103B1A6006E04C4A103AFB
:10121000126882434A4B103B1A60704739B1484A02
:101220001C3212680243464B1C331A6006E0444AE3
:101230001C3212688243424B1C331A60704739B12A
:101240003F4A2032126802433D4B20331A6006E0C9
:101250003B4A203212688243394B20331A60704770
:1012600039B1374A243212680243354B24331A60AD
:1012700006E0334A243212688243314B24331A6029
:10128000704739B12E4A2C32126802432C4B2C3352
:101290001A6006E02A4A2C3212688243284B2C330B
:1012A0001A60704739B1264A303212680243244B23
:1012B00030331A6006E0224A303212688243204BF3
:1012C00030331A607047012808D11D493C31096844
:1012D00041F008011A4A3C32116007E018493C31DC
:1012E000096821F00801164A3C321160704739B193
:1012F000134A273A12780243114B273B1A7006E033
:101300000F4A273A127882430D4B273B1A707047D9
:101310000B484030006840F0807009494031086057
:10132000704701460020064A283A12680A400AB16E
:10133000012000E0002070470149263908707047FD
:101340003438024010B50446FA48844208D10121DD
:101350001020FFF752FF00211020FFF74EFF57E04B
:10136000F548844209D101214804FFF735FF0021E7
:101370004FF40030FFF730FF4AE0F048844209D1D3
:1013800001218804FFF728FF00214FF48020FFF798
:1013900023FF3DE0EA48844209D10121C804FFF758
:1013A0001BFF00214FF40020FFF716FF30E0E54857
:1013B000844209D101210805FFF70EFF00214FF4F7
:1013C0008010FFF709FF23E0DF48844208D10121A4
:1013D0002020FFF712FF00212020FFF70EFF17E06B
:1013E000DA48844209D101218807FFF7F5FE002180
:1013F0004FF08040FFF7F0FE0AE0D548844207D165
:1014000001214005FFF7E8FE00216005FFF7E4FE3B
:1014100010BD2DE9FF4705460E460024A14600BF3A
:10142000A046B08900B100BF2C8A24F44054F08853
:1014300004432C82AC8941F20C608443B08831892A
:101440000843718908430443AC81AC8A24F4407496
:10145000B0890443AC826846FFF74FFDB54885422A
:1014600002D0B948854202D1DDF80C9001E0DDF8E8
:101470000890A88900F4004040B109EBC90000EBD6
:10148000091031684900B0FBF1F707E009EBC9002A
:1014900000EB091031688900B0FBF1F76420B7FB5D
:1014A000F0F004012009642101FB1078A88900F400
:1014B000004040B1322000EBC800B0FBF1F000F07A
:1014C0000700044308E0322000EB08106421B0FB61
:1014D000F1F000F00F0004432C81BDE8FF874FF4CA
:1014E0001651016000218180C18001810C21418160
:1014F00000218181704710B502460020108A20F437
:1015000070600B884C8823438C882343CC8823430A
:101510001843108210BD0021018041808180C1806C
:10152000704721B1828942F40052828104E08289AD
:101530004DF6FF731A4082817047028B02F47F429E
:101540000283028B0A430283704721B1828942F4ED
:101550000042828103E08289C2F30E0282817047D9
:1015600021B1828A42F40062828204E0828A4FF2D0
:10157000FF731A4082827047C1F30802828070476D
:1015800001468888C0F308007047028A4FF6F0735E
:101590001A400282028A0A430282704721B182897C
:1015A00042F00202828104E082894FF6FD731A4004
:1015B0008281704782894FF2FF731A40828182894B
:1015C0000A4382817047028A4FF6DF731A40028213
:1015D000028A0A430282704721B1028A42F48042A1
:1015E000028204E0028A4BF6FF731A4002827047BF
:1015F000818941F001018181704721B1828A42F0E5
:101600000802828204E0828A4FF6F7731A408282CF
:101610007047028BD2B20283028B42EA012202831C
:10162000704721B1828A42F02002828204E0828ADD
:101630004FF6DF731A408282704721B1828A42F0EE
:101640001002828204E0828A4FF6EF731A4082828F
:101650007047828A4FF6FB731A408282828A0A435D
:101660008282704721B1828A42F00202828204E0C3
:10167000828A4FF6FD731A40828270471AB1838ABC
:101680000B43838202E0838A8B4383827047F0B5E9
:101690000346002400260025002040F66A17B942C0
:1016A00000D100BF1846C1F3421401F01F06012704
:1016B00007FA06F5012C01D10C3004E0022C01D10F
:1016C000103000E014301AB107682F43076002E0C1
:1016D0000768AF430760F0BD02460020B1F5007F08
:1016E00000D100BF13880B400BB1012000E00020A7
:1016F000704701F40072B2F5007F00D100BFCA4309
:101700000280704770B502460024002300250020A7
:1017100040F66A16B14200D100BFC1F3421501F094
:101720001F03012606FA03F3012D13D196893340D6
:1017300017E0000000100140004400400048004055
:10174000004C004000500040001401400078004070
:10175000007C0040022D02D1168A334001E0968AB7
:1017600033400C12012606FA04F41688344013B1F3
:101770000CB1012000E0002070BD10B50022002354
:1017800040F66A14A14200D100BF0A12012494401D
:10179000A3B2DC43048010BD10B504466FF0040012
:1017A000FEF708FFE11704EB5171C1F3C701394A95
:1017B00011701046007800EB4001C1EBC0104FF6ED
:1017C000FF7101EAC0003449088010BD0146314A6A
:1017D00012784A434FF0E0235A6100229A611A4678
:1017E000126942F001021A6100BF4FF0E022106955
:1017F00000F001021AB100F48032002AF5D04FF057
:10180000E022126922F001024FF0E0231A61002267
:101810009A6170470146204A12884A434FF0E023FC
:101820005A6100229A611A46126942F001021A6155
:1018300000BF4FF0E022106900F001021AB100F47D
:101840008032002AF5D04FF0E022126922F0010226
:101850004FF0E0231A6100229A61704770B5044688
:101860004FF4077094FBF0F0C6B24FF4077094FB8E
:10187000F0F100FB114085B205E04FF40770FFF76F
:10188000C9FF701EC6B2002EF7D115B12846FFF76A
:10189000C1FF70BD300000203200002000BF704743
:1018A00000BF4C4A128802F04002002AF9D0C2B2AE
:1018B000484B9A80704710B588B00446012108460D
:1018C000FFF7ECFB01211020FFF742FC0722092162
:1018D0004148FFF7D0F907220A213F48FFF7CBF92B
:1018E0004FF4C060069002208DF81C008DF81D009A
:1018F00000208DF81E0001208DF81F0006A9364833
:10190000FFF72EF902940020ADF80C00ADF80E00A0
:10191000ADF81000ADF814000C20ADF8120002A9CB
:101920002C48FFF776FD01212A48FFF7FAFD012236
:1019300040F225512748FFF7AAFE25208DF8040024
:1019400003208DF805008DF8060001208DF80700B2
:1019500001A8FEF7E2FD08B010BD10B540F2255118
:101960001C48FFF7CFFE10B31A48FFF709FEC4B2B8
:101970001A48008800F40040C8B91848008800F4EC
:10198000804060B10A2C03D000201449088020E078
:101990001248008840F400401049088019E00D2CDE
:1019A00006D10E48008840F480400C49088010E0C1
:1019B0000A480088C0F30D0009490C540748008804
:1019C000401C0649088008460088C72801DD002021
:1019D000088010BD001001400000024038000020C7
:1019E000540000201CB501216620FFF757FB202082
:1019F000009001208DF8040000208DF806000220E0
:101A00008DF8070003208DF805006946FE48FFF7B2
:101A1000A7F80720009001208DF8040000208DF821
:101A2000060002208DF8070003208DF805006946A6
:101A3000F648FFF795F84FF43840009001208DF8F4
:101A4000040000208DF8060002208DF80700032016
:101A50008DF805006946EE48FFF782F84FF48040A4
:101A6000009000208DF8040002208DF807006946E0
:101A7000E748FFF775F80320009001208DF8040077
:101A800000208DF8060002208DF8070003208DF855
:101A900005006946DF48FFF763F80020DE4908606B
:101AA000DE49C1F88802DE4908601CBD10B500207F
:101AB000D94908390860DB49C1F880020120D849BA
:101AC000091F08606420FFF7C9FE0020D449091FE0
:101AD0000860D14908390860091F0860D2490860C8
:101AE000091F0860D14908600120D149C1F8B4023A
:101AF00010BD002118E00022C74B0C3B1A6000F01B
:101B000080021AB101221B1F1A6003E00022C24B9F
:101B1000103B1A6000BF0122BF4B0C3B1A6000BF94
:101B20004206100E4A1CD1B20829E4DB704700209F
:101B300000210EE00022B84B0C3B1A60BC4AD2F8E0
:101B400038220243D0B201221A604206100E4A1C0B
:101B5000D1B20829EEDB704710B50020B349086008
:101B60000120B449C1F89402C820FFF72FFE0020DD
:101B7000AE49086010BD10B50020AC4908600120D6
:101B8000AC49C1F89402C820FFF720FE0020A74905
:101B9000086010BD10B501209F4908390860002079
:101BA000FFF7A7FFFFF7C3FF04462402FFF7BFFFBD
:101BB00004442402FFF7BBFF04442402FFF7B7FFED
:101BC000044400209A49C1F8B402204610BD10B563
:101BD0000120914908390860FFF78BFFFFF7A7FF45
:101BE00004462402FFF7A3FF04442402FFF79FFFEB
:101BF000044400208E49C1F8B402204610BD10B53F
:101C0000044600208449083908600220FFF771FF6C
:101C10002012FFF76EFFE0B2FFF76BFF012084494F
:101C2000C1F8B402FFF798FF10BD10B5FFF7DAFE58
:101C3000FFF73CFF4FF49670FFF710FE0020764947
:101C400008390860FFF755FF0220FFF752FF102008
:101C5000FFF74FFF0020FFF74CFF4020FFF749FF41
:101C60000120FFF746FF0020FFF743FF0820FFF7A2
:101C700040FF8020FFF73DFF01206D49C1F8B4020D
:101C80004FF4A870FFF7BBFF10BD10B52DED048B0E
:101C9000B0EE408AF0EE608A674890ED000B53EC9E
:101CA000102B51EC180B00F0F7FF41EC190B00F072
:101CB0009BFFBDEC048B10BD10B52DED028BB0EE7B
:101CC000408AF0EE608A0020534908390860B0EE7F
:101CD000480AF0EE680AFFF7D8FF04460420FFF731
:101CE00008FF200EFFF705FFC4F30740FFF701FFD1
:101CF000C4F30720FFF7FDFEE0B2FFF7FAFE012074
:101D00004B49C1F8B402FFF727FFBDEC028B10BDB1
:101D100010B52DED0A8BB0EE408AF0EE608AB0EE81
:101D2000419AF0EE619AB0EE42AA00203A49083991
:101D300008604049C1F894020120FFF747FD0020E8
:101D4000FFF7D7FE0020FFF7D4FE0020FFF7D1FEFB
:101D50000020FFF7CEFE4020FFF7CBFE0120FFF76B
:101D6000C8FE0020FFF7C5FE0020FFF7C2FEA4203A
:101D7000FFF7BFFE18EE100A01F08CF841EC1B0BC8
:101D8000B0EE4B0AF0EE6B0AFFF796FF00202649F3
:101D900008602249C1F880020720FFF7AAFE01204F
:101DA000FFF7A7FE0020FFF7A4FE0020FFF7A1FE2B
:101DB0000020FFF79EFE0020FFF79BFEFFF7CCFE02
:101DC00018EE900A01F066F841EC1C0B9FED1B0B1E
:101DD00053EC102B00F060FF41EC1B0B00F004FFF4
:101DE00084B24FF6FF7000EA84040B20FFF781FEF7
:101DF0002012FFF77EFEE0B2FFF77BFE0020FFF728
:101E000078FE00201EE000000008024000040240AE
:101E10000014024000180240BC824242008040424E
:101E20008402434200004342848240429402414281
:101E3000008042420000414240000020E17A14AE9E
:101E400047C14640FFF755FE0120F64908600020D3
:101E5000F549C1F880020820FFF74BFE0120FFF78B
:101E600048FE0020FFF745FE0120FFF742FE042058
:101E7000FFF73FFE0020FFF73CFEFFF76DFE19EE77
:101E8000100A01F007F841EC1C0B1FED140B53EC8A
:101E9000102B00F001FF41EC1B0B00F0A5FE84B2FB
:101EA0004FF6FF7000EA84040B20FFF722FE201299
:101EB000FFF71FFEE0B2FFF71CFE0020FFF719FE40
:101EC0000020FFF716FE0020D64908600120D64901
:101ED000C1F880020920FFF70CFE0120FFF709FE80
:101EE0000020FFF706FE0220FFF703FE0820FFF7A1
:101EF00000FE0020FFF7FDFDFFF72EFE19EE900A11
:101F000000F0C8FF41EC1C0B1FED340B53EC102B01
:101F100000F0C2FE41EC1B0B00F066FE84B24FF6EF
:101F2000FF7000EA84040B20FFF7E3FD2012FFF7A7
:101F3000E0FDE0B2FFF7DDFD0020FFF7DAFD002055
:101F4000FFF7D7FD0120B7490860B749C1F8800203
:101F50000A20FFF7CEFD0120FFF7CBFD0020FFF7A1
:101F6000C8FD0320FFF7C5FD0C20FFF7C2FD0020D0
:101F7000FFF7BFFDFFF7F0FD1AEE100A00F08AFF31
:101F800041EC1C0B1FED530B53EC102B00F084FEA7
:101F900041EC1B0B00F028FE84B24FF6FF7000EA04
:101FA00084040B20FFF7A5FD2012FFF7A2FDE0B28D
:101FB000FFF79FFD0020FFF79CFD0020FFF799FD34
:101FC0000020FFF796FDA020FFF793FD0020FFF70C
:101FD00090FD0020FFF78DFD4020FFF78AFD0120D6
:101FE00092490860FFF7B8FDBDEC0A8B10BD70B5D3
:101FF0002DED068BB0EE408A064600208B49086026
:102000008B49C1F89402FFF774FD0020FFF771FDC2
:102010000020FFF76EFD0020FFF76BFD4020FFF76B
:1020200068FD0120FFF765FD0020FFF762FD00203D
:10203000FFF75FFDA420FFF75CFD18EE100A00F02B
:1020400029FF41EC190BB0EE490AF0EE690AFFF7DF
:1020500033FE0420FFF74DFD0020FFF74AFD10205E
:10206000FFF747FD0020FFF744FD0020FFF741FD8B
:10207000FFF772FD00206B4908606B49C1F88002D0
:102080000720FFF736FD0020FFF733FD0420FFF7A0
:1020900030FD0720FFF72DFD0020FFF72AFD8020EF
:1020A000FFF727FDFFF758FD0B20FFF722FD002467
:1020B00022E036F8140000F0DBFD41EC1A0B1FEDB6
:1020C000A10B53EC102B00F0E7FD41EC190B00F0D5
:1020D0008BFD85B24FF6FF7000EA85052812FFF7E9
:1020E00008FDE8B2FFF705FD0020FFF702FD002024
:1020F000FFF7FFFC601CC4B2082CDADB0020FFF7FE
:10210000F8FCC020FFF7F5FC0020FFF7F2FC0020F0
:10211000FFF7EFFC4020FFF7ECFC0120434908608B
:10212000FFF71AFDBDEC068B70BD70B52DED048B6D
:10213000064600203D4908603D49C1F89402FFF77A
:10214000D8FC0020FFF7D5FC0020FFF7D2FC0020D0
:10215000FFF7CFFC4020FFF7CCFC0120FFF7C9FCC4
:102160000020FFF7C6FC0020FFF7C3FC2420FFF788
:10217000C0FC00202B4908602B49C1F880020720D1
:10218000FFF7B7FC3520FFF7B4FC0C20FFF7B1FCDC
:102190001F20FFF7AEFC0020FFF7ABFC8020FFF70D
:1021A000A8FCFFF7D9FC0B20FFF7A3FC002520E0DB
:1021B00056F8250000F05CFD41EC190B9FED1D0B5E
:1021C00053EC102B00F068FD41EC180B00F00CFDF7
:1021D0000446200EFFF78DFCC4F30740FFF789FC8F
:1021E000C4F30720FFF785FCE0B2FFF782FC681C10
:1021F000C5B2202DDCDB0020FFF77BFC8020FFF741
:1022000078FC0020FFF775FC0020FFF772FC4020EF
:10221000FFF76FFC012005490860FFF79DFCBDEC4E
:10222000048B70BD8482404200804042B4824242AE
:10223000000041429A7CB3CD8D79254010B5002035
:10224000FC490860FFF755FC0220FFF752FC002014
:10225000FFF74FFC2020FFF74CFC4020FFF749FC24
:102260000520FFF746FC3020FFF743FC0020FFF776
:1022700040FC0120F049C1F8B402FFF76DFC10BD2D
:1022800010B50020EB490860FFF733FC0220FFF790
:1022900030FC0020FFF72DFC0020FFF72AFC402037
:1022A000FFF727FC0120E449C1F8B402FFF754FC12
:1022B00010BD2DE9F0412DED088BB0EE40BAF0EEE7
:1022C00060BAB0EE418AF0EE618AB0EE429AF0EE6A
:1022D000629A0746B0EE43AAF0EE63AA0E46154690
:1022E0000020D6490860D649C1F88002D14908606B
:1022F000FFF7FFFB0220FFF7FCFB2020FFF7F9FBB5
:102300000020FFF7F6FB05F0800018B14420FFF72E
:10231000F0FB02E04020FFF7ECFBB0EE4B0AF0EEE2
:102320006B0AFFF7B2FC04460420FFF7E2FB200E25
:10233000FFF7DFFBC4F30740FFF7DBFBC4F3072025
:10234000FFF7D7FBE0B2FFF7D4FBB0EE480AF0EEA0
:10235000680AFFF79AFC04460620FFF7CAFB200E26
:10236000FFF7C7FBC4F30740FFF7C3FBC4F3072025
:10237000FFF7BFFBE0B2FFF7BCFB05F07F05012DC7
:102380001DD0B0EE4A0AF0EE6A0AFFF77EFC044662
:102390000720FFF7AEFB3046FFF7ABFB200EFFF741
:1023A000A8FBC4F30740FFF7A4FBC4F30720FFF723
:1023B000A0FBE0B2FFF79DFB0020A0490860EDB153
:1023C000B0EE490AF0EE690AFFF75FFC0446082008
:1023D000FFF78FFB3846FFF78CFB200EFFF789FBDA
:1023E000C4F30740FFF785FBC4F30720FFF781FB29
:1023F000E0B2FFF77EFB01209049086001208D4983
:102400000860FFF7A9FBBDEC088BBDE8F0818B49A4
:102410000860704710B52DED088BB0EE40BAF0EEB5
:1024200060BAB0EE418AF0EE618AB0EE429AF0EE08
:10243000629AB0EE43AAF0EE63AA00207D490860DC
:10244000FFF757FB0020FFF754FB0020FFF751FB7D
:102450000020FFF74EFB4020FFF74BFB0120FFF76A
:1024600048FB0020FFF745FB0020FFF742FBA420BC
:10247000FFF73FFB00207249C1F884026F49091F32
:1024800008600720FFF735FB0120FFF732FB002033
:10249000FFF72FFB0020FFF72CFB0020FFF729FBA5
:1024A0000020FFF726FBFFF757FBB0EE4B0AF0EEDC
:1024B0006B0AFFF7EAFB04460B20FFF71AFB200E1E
:1024C000FFF717FBC4F30740FFF713FBC4F3072024
:1024D000FFF70FFBE0B2FFF70CFB01205749086044
:1024E0000020091F08600820FFF703FB0120FFF709
:1024F00000FB0020FFF7FDFA0120FFF7FAFA0420A5
:10250000FFF7F7FA0020FFF7F4FAFFF725FBB0EE2C
:10251000480AF0EE680AFFF7B8FB04460B20FFF705
:10252000E8FA200EFFF7E5FAC4F30740FFF7E1FAF7
:10253000C4F30720FFF7DDFAE0B2FFF7DAFA002074
:102540003E4908600120091F08600920FFF7D1FA01
:102550000120FFF7CEFA0020FFF7CBFA0220FFF7A9
:10256000C8FA0820FFF7C5FA0020FFF7C2FAFFF704
:10257000F3FAB0EE490AF0EE690AFFF786FB04466B
:102580000B20FFF7B6FA200EFFF7B3FAC4F30740AB
:10259000FFF7AFFAC4F30720FFF7ABFAE0B2FFF79B
:1025A000A8FA012025490860091F08600A20FFF7E2
:1025B000A0FA0120FFF79DFA0020FFF79AFA032006
:1025C000FFF797FA0C20FFF794FA0020FFF791FA33
:1025D000FFF7C2FAB0EE4A0AF0EE6A0AFFF755FBBF
:1025E00004460B20FFF785FA200EFFF782FAC4F3AA
:1025F0000740FFF77EFAC4F30720FFF77AFAE0B24C
:10260000FFF777FA0020FFF774FA8020FFF771FADE
:102610000020FFF76EFA0020FFF76BFA4020FFF76B
:1026200068FA01200449C1F8B402FFF795FABDEC3D
:10263000088B10BDB48242420080424284824042F4
:102640000080404210B52DED068BB0EE408AF0EED2
:10265000608A00204C4908604C49C1F880024C490E
:1026600008604C490860091F08604B49C1F8B40272
:10267000FFF73FFA0020FFF73CFA2020FFF739FA76
:102680000020FFF736FA4020FFF733FA0120FFF76A
:1026900030FA0020FFF72DFA0020FFF72AFA8420F5
:1026A000FFF727FA18EE100A00F0F4FB41EC1A0BC2
:1026B0009FED3A0B53EC102B00F0EEFA41EC190BA6
:1026C00000F092FA04460420FFF713FA200EFFF7F9
:1026D00010FAC4F30740FFF70CFAC4F30720FFF722
:1026E00008FAE0B2FFF705FA18EE900A00F0D2FB04
:1026F00041EC1A0B9FED290B53EC102B00F0CCFA98
:1027000041EC190B00F070FA04460620FFF7F1F9CE
:10271000200EFFF7EEF9C4F30740FFF7EAF9C4F320
:102720000720FFF7E6F9E0B2FFF7E3F90720FFF72C
:10273000E0F90120FFF7DDF90020FFF7DAF90020CA
:10274000FFF7D7F91B20FFF7D4F9F420FFF7D1F9F1
:102750000820FFF7CEF90120FFF7CBF90020FFF7A3
:10276000C8F90120FFF7C5F9A320FFF7C2F96F20D0
:10277000FFF7BFF901200449091D0860FFF7ECF9D4
:10278000BDEC068B10BD0000B08242420000434207
:102790009402414284824042008042420B24287EBF
:1027A0008C79254070B52DED028B01250124002682
:1027B00000BF24E005211C4800F0C4F80A20FFF700
:1027C0004DF81A4904FB01F000F03BFA41EC180BFC
:1027D000B0EE480AF0EE680AFFF76EFA6006000EE7
:1027E000134908550819012100F0ACF805211148DA
:1027F00000F0A8F81420FFF731F8601CC4B2282CB0
:10280000D8DDBDEC028B70BD10B50122FA219FED21
:102810000A3B08469FED082B9FED091B9FED060B19
:10282000FFF747FD10BD00004D00002040420F00A3
:102830001C010020480000200000000080842E4180
:10284000000000000000204000B587B001210420F6
:10285000FEF724FC01212020FEF77AFC0822062145
:102860005448FEF708FA082207215248FEF703FAF7
:1028700005A8FEF7BDF9C020059002208DF81800CC
:102880008DF8190000208DF81A0001208DF81B002A
:1028900005A94848FEF764F94FF41650019000204E
:1028A000ADF80800ADF80A00ADF80C00ADF8100066
:1028B0000C20ADF80E0001A93F48FEF7AAFD01214A
:1028C0003D48FEF72EFE07B000BD10B540F2255181
:1028D0003948FEF717FF10B33748FEF751FEC4B270
:1028E0003648008800F40040C8B93448008800F435
:1028F000804060B10A2C03D000203049088020E0DD
:102900002E48008840F400402C49088019E00D2C26
:1029100006D12A48008840F480402849088010E009
:1029200026480088C0F30D0025490C542348008830
:10293000401C2249088008460088C72801DD002085
:10294000088010BDF8B505460E461EA00068009030
:10295000002413E0295D1848FEF70EFE00BF402159
:102960001548FEF7B9FE0128F9D1FF2700BF381E30
:10297000A7F10101CFB2FAD1601CC4B2B442E9DBC5
:102980009DF800100C48FEF7F7FD00BF40210A48F3
:10299000FEF7A2FE0128F9D19DF801100648FEF7C6
:1029A000EBFD00BF40210448FEF796FE0128F9D157
:1029B000F8BD000000080240001401405200002051
:1029C000440100200D0A000000B58DB00121084629
:1029D000FEF764FB01210802FEF7BAFB20200B90F2
:1029E00003208DF8300000208DF833000BA9394802
:1029F000FEF7B6F801210802FEF7FFFB00214FF4B5
:102A00008070FEF7FAFB002007900A9009904FF4BF
:102A10008030089007A8FDF725FE002001908DF872
:102A200008008DF809000390059001208DF818002A
:102A300001A92948FDF7E7FD01212748FDF729FEF7
:102A40000DB000BD10B504460723012221462248DF
:102A5000FDF75FFE2048FDF7B8FE00BF02211E48CB
:102A6000FDF7D4FF0028F9D01B48FDF7EAFE10BDA2
:102A70002DE9F04180460C460025002608E040463E
:102A8000FFF7E0FF05440520FEF7E8FE701CC6B224
:102A9000A642F4DB6420684340F6FF71B0FBF1F717
:102AA000B7FBF4F080B2BDE8F08170B505210846AF
:102AB000FFF7DEFF04463220FEF7D0FEC4EB843081
:102AC0004FF4F07190FBF1F085B22846FFF797F8CC
:102AD00070BD00000000024000200140704700006F
:102AE0000FB4044910B503AA029800F009F810BC0D
:102AF0005DF814FB34000020704770477047704742
:102B0000074B70B50D467B4400F011F8044628468B
:102B100000F020F810B14FF0FF3070BD204670BDBE
:102B200097EDFFFF01694A1C02610878704700B504
:102B30008FB0CDE901310021059105497944CDE9F6
:102B400003101146684600F02EF80FB000BD0000DB
:102B5000E5FFFFFF007B00F080007047754600F046
:102B60003FF8AE4605006946534620F0070085460B
:102B700018B020B5FDF7BAFCBDE820404FF00006C4
:102B80004FF000074FF000084FF0000B21F0070155
:102B9000AC46ACE8C009ACE8C009ACE8C009ACE898
:102BA000C0098D4670472DE9F04106460024D6E95C
:102BB0000170F5688046304603E04146B847641C22
:102BC0003046A8470028F8D12046BDE8F08110B56E
:102BD0000446AFF300802046BDE81040FDF71DBB62
:102BE000004870470C0200204FEA1153A3F58063A0
:102BF000D3F11E03A8BFD3F1200C08DB4FF0004235
:102C000042EAC12252EA505232FA03F070470942B6
:102C10000BD4102BC4BF0020704703F5787CBCF1A7
:102C2000FF3F05D04FF0FF3070474FF00000704776
:102C300070B500F0DBF800BF499224800020704797
:102C4000F0E710F0004248BF4042B0FA80F310FABB
:102C500003F10AD0C3F11D0303F580634FEA41502D
:102C600002EB035202EBD12170474FF00000704796
:102C7000B0FA80F310FA03F10AD0C3F11D0303F593
:102C800080634FEA41504FEA035202EBD121704773
:102C90004FF0000070470000DFF848C170B51CEA33
:102CA000111E1EBF1CEA13159EEA0C0F95EA0C0FAD
:102CB00000F06F8081EA030423EA4C134EEAD47ECD
:102CC00021EA4C1141F4801143F48013AE44A1FB7E
:102CD000024CA0FB0365AEF17F7E361955EB0C0567
:102CE000A1FB034C4CF10003A0FB021C16EB0C06ED
:102CF000654153F10003094218BF46F0010613F481
:102D0000007F0BD14FEA03314FEA0530340341EA2B
:102D1000155140EA16506FF003020AE04FEAC32152
:102D20004FEAC520F40241EA555140EA56506FF08F
:102D3000020202EB2E4201EB025585EACE710AD067
:102D40005FEA440C18BF24F0004450F1000041F148
:102D5000000120EAD47040F2FE7C624500D270BDD2
:102D6000A84214BF4FF080444FF04044002E08BFEB
:102D70000024BEF1806FA8BFA1F1C041BDE8704042
:102D800080F282804FF0000001F1C04101F000416B
:102D900070479EEA0C0F0CEA131518BF95EA0C0F4A
:102DA00006D04FF0000081EA030E0EF0004170BD26
:102DB00000F01CF88900013E00F007B800F009B8E7
:102DC0004FEA430C5FEA5C5C08D081EA030100F043
:102DD0005BB84FEA410C5FEA5C5CF6D14FF0000053
:102DE000014970470000FF070000F87F0EF1020E56
:102DF0002EF0030E5EF8046B364205D4012A43EB35
:102E0000030515F5001F12D8012841EB010C1CF534
:102E1000001F0CD80ED14FEAD17C15F5001F0CEB2A
:102E20004C0C0CF1020C08BF4CEBD37C04E04FF0CF
:102E3000080C01E04FEAD37C0CEB4C0526FA05F6B2
:102E400006F00706B6F1040C06D20EEB860CBDE8C0
:102E500070404CF0010C6047DFE80CF0090B0202F7
:102E60004FF000414FF00000A1F5002170BD194660
:102E70001046012851EB010418BFD4F5001484BF9B
:102E8000002001F0004170BD0808A0F500114FEAD4
:102E90003101704743004FEAD30C4FEA3C0C4340EA
:102EA0001FBF40070CF1605113F0FE4F70471CF03C
:102EB000006F03D100200CF0004170470CF000437C
:102EC00043EA507010B540EACC0000F00EF800BFA5
:102ED000000000924FEA0001FFF7D6BF4FF000411B
:102EE0004FF00000A1F5002170470EF1020E2EF008
:102EF000030E5EF8044B244204D44FEA4102B2F1BF
:102F00007F4F11D84FEA4003B3F17F4F0CD80ED159
:102F10004FEAD07CB2F17F4F0CEB4C0C0CF1020C61
:102F200008BF4CEBD17C04E04FF0080C01E04FEA05
:102F3000D17C0CEB4C0324FA03F404F00704B4F145
:102F4000040C06D20EEB840CBDE810404CF0010CD2
:102F50006047DFE80CF0070802024FF00040A0F5E0
:102F6000800010BD0846420018BFD2F1807288BFB1
:102F700000F0004010BD4FF04070E1EE100A7047C5
:102F8000A02F00080000002054000000C401000829
:102F9000F42F0008540000201C080000E001000885
:102FA000535441525453544F50540000007A030A72
:102FB00000000000000000000102030406070809E9
:102FC00000000000010203040102030406070809CF
:102FD00000000000000000000000000000000000F1
:102FE0003A8C30E28E79254053544F504653544129
:042FF0005246000045
:040000050800018965
:00000001FF
